:020000040800F2
:100000001804002001010008090100080B01000884
:100010000D0100080F010008110100080000000098
:1000200000000000000000000000000013010008B4
:100030001501000800000000170100081901000860
:100040001B0100081B0100081B0100081B01000820
:100050001B0100081B0100081B0100081B01000810
:100060001B0100081B0100081B0100081B01000800
:100070001B0100081B0100081B0100081B010008F0
:100080001B0100081B0100081B0100081B010008E0
:100090001B0100081B0100081B0100081B010008D0
:1000A0001B0100081B0100081B0100081B010008C0
:1000B0001B0100081B0100081B0100081B010008B0
:1000C0001B0100081B0100081B0100081B010008A0
:1000D0001B0100081B0100081B0100081B01000890
:1000E0001B0100081B0100081B010008DFF80CD0F1
:1000F00000F018F800480047F50700081804002031
:100100000648804706480047FEE7FEE7FEE7FEE7B1
:10011000FEE7FEE7FEE7FEE7FEE7FEE7ED05000887
:10012000ED000008064C074D06E0E06840F00103D2
:1001300094E8070098471034AC42F6D3FFF7DAFF93
:100140006C0900088C0900082DE9F04102460025E1
:100150000026002000230024002791F803C00CF0A3
:100160000F0591F803C00CF0100CBCF1000F03D088
:1001700091F802C04CEA050591F800C0BCF1000FEF
:1001800031D0146800202BE04FF0010C0CFA00F382
:10019000B1F800C00CEA03069E4220D183004FF064
:1001A0000F0C0CFA03F7BC4305FA03FC4CEA0404F9
:1001B00091F803C0BCF1280F06D14FF0010C0CFAE6
:1001C00000FCC2F814C00AE091F803C0BCF1480F6B
:1001D00005D14FF0010C0CFA00FCC2F810C0401C15
:1001E0000828D1D31460B1F800C0BCF1FF0F34DD92
:1001F000546800202EE000F1080C4FF0010808FAC6
:100200000CF3B1F800C00CEA03069E4221D1830032
:100210004FF00F0C0CFA03F7BC4305FA03FC4CEA51
:10022000040491F803C0BCF1280F05D100F1080CBB
:1002300008FA0CF8C2F8148091F803C0BCF1480F1A
:1002400007D100F1080C4FF0010808FA0CF8C2F8C9
:100250001080401C0828CED35460BDE8F081416175
:10026000704701617047000029B1064AD269024314
:10027000044BDA6104E0034AD2698243014BDA613C
:10028000704700000010024029B1064A92690243FB
:10029000044B9A6104E0034A92698243014B9A61DC
:1002A000704700000010024010B500F02BF801204C
:1002B00000F0EAF800BF212000F0B4F80028FAD0DE
:1002C000002000F0D5F8002000F0F0F84FF4806036
:1002D00000F0E0F84FF4E011002000F0F9F8012000
:1002E00000F0F0F800BF392000F09CF80028FAD0A8
:1002F000022000F0FBF800BF00F0B2F80828FBD1A4
:1003000010BD00000F48006840F001000D49086072
:10031000084640680C4908400A4948600846006899
:100320000A490840074908600846006820F4802010
:1003300008600846406820F4FE0048604FF41F0043
:1003400088607047001002400000FFF8FFFFF6FED3
:1003500030B500210022002400232D4D6D6805F0EA
:100360000C0121B1042905D0082923D105E0294D2C
:10037000056022E0274D05601FE0254D6D6805F4FE
:100380007012234D6D6805F48034022505EB92420E
:100390001CB9214D554305600BE01D4D6D6805F4FA
:1003A00000351DB11C4D5543056002E0194D554304
:1003B000056002E0174D056000BF00BF144D6D6879
:1003C00005F0F0010909154D6B5C0568DD404560DD
:1003D0000F4D6D6805F4E061090A104D6B5C4568CE
:1003E000DD4085600A4D6D6805F46051C90A0B4D0A
:1003F0006B5C4568DD40C560054D6D6805F44041A6
:10040000890B074D6B5CC568B5FBF3F5056130BD25
:100410000010024000127A0000093D000000002098
:100420001000002010B501460022002300204A11D0
:10043000012A02D1094C236806E0022A02D1074CA6
:10044000236A01E0054C636A01F01F020124944015
:100450001C400CB1012000E0002010BD0010024043
:100460000248406800F00C00704700000010024095
:1004700001460020034A506820F0F0000843506015
:1004800070470000001002400149086070470000FA
:100490000000424201460020034A506820F4E06018
:1004A00008435060704700000010024001460020E1
:1004B000034A506820F4605040EAC1005060704721
:1004C00000100240014908667047000000004242E7
:1004D00002460020044B586820F47C1042EA0103D5
:1004E0001843014B5860704700100240014600203D
:1004F000034A506820F00300084350607047000032
:100500000010024010B500F001F810BD0CB500203D
:10051000019000903348006840F480303149086011
:1005200000BF3048006800F4003000900198401C83
:100530000190009818B90198B0F5A06FF1D1294841
:10054000006800F4003010B10120009001E00020AC
:1005500000900098012843D12348006840F0100023
:10056000214908600846006820F00300086008463A
:10057000006840F0020008601A4840681949486065
:100580000846406848600846406840F4806048601B
:100590000846406820F47C1048600846406840F4F3
:1005A000E81048600846006840F08070086000BFAE
:1005B0000C48006800F000700028F9D00948406835
:1005C00020F00300074948600846406840F00200F8
:1005D000486000BF0348406800F00C000828F9D1CB
:1005E0000CBD0000001002400020024010B513486E
:1005F000006840F001001149086008464068104951
:1006000008400E494860084600680E4908400B49FA
:1006100008600846006820F48020086008464068AA
:1006200020F4FE0048604FF41F008860FFF76AFF67
:100630004FF000600449086010BD00000010024047
:100640000000FFF8FFFFF6FE08ED00E021B182890F
:1006500042F40052828104E082894DF6FF731A4011
:100660008281704702460020B1F5007F00D100BFB3
:1006700013880B400BB1012000E000207047000000
:100680002DE9F04786B005460E460024A24600BF7D
:10069000A1460027B08900B100BF2F462C8A4CF636
:1006A000FF700440F08804432C82AC894EF6F310AE
:1006B0000440B08831890843718908430443AC8100
:1006C000AC8A4FF6FF400440B0890443AC8201A8D5
:1006D000FFF73EFE1F48874202D1DDF810A001E07F
:1006E000DDF80CA0A88900F4004040B10AEBCA0074
:1006F00000EB0A1031684900B0FBF1F807E00AEBA3
:10070000CA0000EB0A1031688900B0FBF1F86420E0
:10071000B8FBF0F004012009642101FB1089A889CD
:1007200000F4004040B1322000EBC900B0FBF1F012
:1007300000F00700044308E0322000EB09106421B8
:10074000B0FBF1F000F00F0004432C8106B0BDE8CF
:10075000F087000000380140C1F308028280704732
:10076000014A024900F013B8D10700081400002024
:1007700002E008C8121F08C1002AFAD1704770476A
:10078000002001E001C1121F002AFBD170472DE9B2
:10079000F04116460F460446002503E03946B047AF
:1007A000641C6D1C20780028F8D12846BDE8F08133
:1007B000002106E041F6583100BF0A1EA1F10101F7
:1007C000FBD1021EA0F1010398B2F3D170470000E3
:1007D00070B504460D46E1B20548FFF7BDFF00BF06
:1007E00040210348FFF73EFF0028F9D0204670BDA6
:1007F00000480040FFF758FD00F05CF833E00121AD
:100800001948FFF72EFD20211848FFF72AFD18A0F0
:10081000FFF7A6FF1BA0FFF7A3FFA5212448FFF7C2
:100820009BFF00BF40212248FFF71CFF0028F9D0A2
:10083000A9211F48FFF790FF00BF40211C48FFF788
:1008400011FF0028F9D0AD211948FFF785FF4FF4BB
:100850007A70FFF7ADFF01210348FFF700FD4FF469
:100860007A70FFF7A5FFCAE70010014000080140B9
:100870007468697320697320612074657374200D36
:100880000A0000000D0A23232323232323232323E9
:100890002323232323232323232323232323232328
:1008A00023232323232323232323230D0A000000B0
:1008B0000048004000B585B001211420FFF7E4FC9A
:1008C00001218804FFF7D0FC18208DF803004FF4B5
:1008D0008060ADF8000002208DF8020069462048D3
:1008E000FFF732FC04208DF803004002ADF8000051
:1008F00069461B48FFF728FC10208DF803000120F3
:10090000ADF8000003208DF8020069461448FFF797
:100910001BFC10208DF803002020ADF80000032000
:100920008DF8020069460F48FFF70EFC4FF4614056
:1009300001900020ADF810000C20ADF80E00002052
:10094000ADF80C00ADF80A00ADF8080001A90648A2
:10095000FFF796FE01210448FFF778FE05B000BDC1
:100960000010014000080140004800408C090008C8
:10097000000000201800000070070008A40900080B
:10098000180000200004000080070008000000009C
:100990000102030401020304060708090204060811
:0409A0000000000053
:04000005080000ED02
:00000001FF
